:020000040800F2
:10000000607D0024AD02000841BE000801B3000875
:1000100039BE0008590A000869E70008000000001E
:1000200000000000000000000000000079C8000887
:10003000F114000800000000D1C4000871C90008D4
:10004000C7020008C7020008C7020008C70200086C
:10005000C7020008C7020008C7020008C70200085C
:10006000C7020008C7020008C7020008610A0008AA
:10007000C7020008C7020008C7020008C70200083C
:10008000C7020008C7020008C7020008C70200082C
:10009000C7020008C7020008C7020008C70200081C
:1000A000C7020008C7020008C7020008C70200080C
:1000B000C7020008C7020008C7020008C7020008FC
:1000C000C7020008C7020008C7020008C7020008EC
:1000D000C702000849E70008C702000859E70008FE
:1000E000C7020008C702000800000000C70200089D
:1000F000C7020008C7020008C7020008C7020008BC
:10010000C7020008C7020008C7020008C7020008AB
:10011000C7020008C7020008C7020008C70200089B
:10012000C7020008C7020008C7020008C70200088B
:10013000C7020008C7020008C7020008C70200087B
:1001400000000000000000000000000000000000AF
:10015000C7020008C7020008C7020008C70200085B
:10016000C7020008C7020008C7020008C70200084B
:10017000C7020008C7020008C7020008000000000C
:10018000C7020008C7020008C7020008C70200082B
:10019000C7020008C7020008C7020008C70200081B
:1001A000C7020008C7020008C7020008C70200080B
:1001B000C7020008C7020008C7020008C7020008FB
:1001C000C7020008C7020008C7020008C7020008EB
:1001D000C7020008C7020008C7020008C7020008DB
:1001E000C7020008C7020008C7020008C7020008CB
:1001F000C7020008C7020008C7020008C7020008BB
:10020000C7020008C7020008C7020008C7020008AA
:10021000C702000831CC000841CC0008C702000822
:10022000C7020008C7020008C7020008000000005B
:10023000C7020008C702000800000000C70200084B
:10024000C7020008C7020008C7020008C70200086A
:10025000C7020008C7020008C7020008C70200085A
:10026000C7020008C7020008C7020008C70200084A
:10027000C7020008C7020008C7020008000000000B
:10028000C7020008C7020008C702000800000000FB
:1002900000000000C7020008DFF80CD000F048FAA8
:1002A0000048004739E80008607D00240648804780
:1002B00006480047FEE7FEE7FEE7FEE7FEE7FEE74B
:1002C000FEE7FEE7FEE7FEE7D1CA00089902000854
:1002D0002DE9F05F0546002092469B46884606467B
:1002E000814640241BE0284641464746224600F00E
:1002F00057F853465A46C01A914110D31146184632
:10030000224600F03EF82D1A67EB01084F462246C0
:100310000120002100F035F817EB00094E41201EA6
:10032000A4F10104DFDC484631462A464346BDE8D5
:10033000F09FD2B201E000F8012B491EFBD27047BA
:100340000022F6E710B513460A4604461946FFF7A1
:10035000F0FF204610BD30B50B460146002020229C
:10036000012409E021FA02F59D4205D303FA02F5C2
:10037000491B04FA02F52844151EA2F10102F1DC22
:1003800030BD202A04DB203A00FA02F10020704739
:100390009140C2F1200320FA03F3194390407047C3
:1003A000202A04DB203A21FA02F00021704721FACA
:1003B00002F3D040C2F12002914008431946704731
:1003C0002DE9FE4F804681EA0300C00F0C460090E5
:1003D00021F0004123F00045B8EB0200A94105D20D
:1003E0004046214690461C460B46024623F00040FC
:1003F000104347D0270DC7F30A00C3F30A510290F8
:10040000401A019040286BDAC3F3130040F4801BBC
:100410000098924620B10023D2EB030A63EB0B0B4A
:1004200001985946C0F140025046FFF7AAFF064620
:100430000D4650465946019A00F092F910EB08001B
:100440006141002487EA115284EAE7731A4340D0DD
:10045000009A62B3019A012A4FEA075215DC001B89
:1004600061EB02014FF0004202EA0752CDE900427F
:10047000001C41F5801132462B4600F092F903B082
:10048000BDE8F08F40462146F9E7001B61EB020111
:10049000001C41F5801300185B412018A2F50017DD
:1004A00047EB030140EAD570B6196D4111E06D08C4
:1004B0004FEA360645EAC0754FEA0752001B61EB6A
:1004C0000201001C41F5801149084FEA3000001973
:1004D000514132462B4603B0BDE8F04F00F052B90F
:1004E0000098012240000023D0EB020263EBE0738E
:1004F000009821464FEAE074B8EB000061EB04017C
:10050000E9E783F000435BE781F0004158E72DE91C
:10051000FE4F81EA030404F0004421F000410094FE
:100520004FF0000B23F0004350EA01045ED052EA82
:1005300003045BD0C3F30A54C1F30A552C44A4F25C
:10054000F3340194A0FB0254C1F3130141F4801170
:10055000C3F3130343F4801301FB024400FB034E77
:10056000840A970A44EA815447EA8357A4FB076840
:1005700002958D0A05FB07854FEA932C04FB0C546A
:100580002705029D4FEA065847EA1637B5EB0805DE
:100590006EEB070C870E920E47EA811742EA831230
:1005A000A7FB0201B6EB0B0164EB00042B0D43EA41
:1005B0000C335E1844EB1C50DA465146E7FB02014F
:1005C000C5F313044FEA0B3343EA14534FEA0432E2
:1005D000019C43EA0603A4F10C040294009CCDE9BB
:1005E00000B400F0DEF803B0BDE8F08F0020014653
:1005F000F9E72DE9F04D81EA030404F0004B21F006
:10060000004514464FF0000A23F0004150EA05026D
:1006100020D054EA01021DD0C5F30A570246C5F3A3
:100620001303C1F31300C1F30A5640F4801543F4D9
:100630008013A7EB0608101BD64608F2FD3873EBB3
:10064000050002D308F1010801E092185B41B8F1FE
:10065000000F03DA00200146BDE8F08D00204FF4C2
:100660008011064684460EE0171B73EB050705D381
:10067000121B63EB050306434CEA010C49084FEAE1
:10068000300092185B4150EA0107EDD152EA0300B5
:1006900012D082EA040083EA0501084305D0101B4A
:1006A000AB4106D20122002306E000224FF00043B6
:1006B00002E06FF0010253101AEB06004CEB0851F8
:1006C00010EB0A0041EB0B01BDE8F04D00F05AB809
:1006D000C1F30A52C1F3130140F2FF3341F4801118
:1006E0009A4202DA00200146704740F233439A42B0
:1006F000A2F2334202DC5242FFF752BEFFF741BE84
:1007000030B5041E71F1000404DB4FF00044404298
:1007100064EB0101141E73F1000405DB1C464FF06D
:100720000043524263EB0403994208BF904230BD3C
:100730001CB509480090094801900546009C06E058
:10074000E06840F0010394E8070098471034AC4299
:10075000F6D3FFF7A5FD00001C0D01083C0D0108B4
:10076000202A06DBCB17203A41FA02F043EAE07375
:1007700006E041FA02F3D040C2F120029140084362
:100780001946704710B5141E73F1000408DA401CB6
:1007900041F1000192185B411A4301D120F00100A0
:1007A00010BD2DE9F04D92469B4611B1B1FA81F290
:1007B00002E0B0FA80F220329046FFF7E2FD0446F4
:1007C0000F4640EA0A0041EA0B0153465A460843E5
:1007D00013D0114653EA010019D0C8F14002504627
:1007E000FFF7DEFD05460E46504659464246FFF7E6
:1007F000C8FD084305D0012004E020463946BDE885
:10080000F08D0020054346EAE0762C4337430A98F2
:100810006305E40AA0EB08000022FD0A44EA4754FD
:100820000A3002D500200146E9E7010510196941A7
:10083000DDE9084500196941BDE8F04DA2E7000077
:1008400080B584B003900398006842F20001C4F2BE
:100850000201884209D0FFE70398006842F20011C4
:10086000C4F20201884209D1FFE742F20830C4F223
:100870000200006810F4403F09D129E046F2083038
:10088000C5F60200006810F4403F21D0FFE707F0F2
:100890008BFF0290039840680190B0F5803F0AD02A
:1008A000FFE70198B0F5003F05D0FFE70198B0F5EC
:1008B000403F07D00AE00398C1880298B0FBF1F0EE
:1008C000029004E002988008029000E0FFE75FE0F9
:1008D0004FF40020002105F0A3FE02900398406829
:1008E0000090B0F5802F32D0FFE70098B0F5002FD0
:1008F0002DD0FFE70098B0F5402F28D0FFE70098F3
:10090000B0F5801F23D0FFE70098B0F5A01F1ED0E0
:10091000FFE70098B0F5C01F19D0FFE70098B0F5C9
:10092000E01F1FD0FFE70098B0F5001F1ED0FFE7C3
:100930000098B0F5101F1DD0FFE70098B0F5201FFC
:100940001CD0FFE70098B0F5301F1BD01EE00398C5
:1009500041686FF0010000EA51410298B0FBF1F0EC
:10096000029014E002980009029010E002984009F9
:1009700002900CE002988009029008E00298C009F9
:10098000029004E00298000A029000E0FFE7FFE70F
:1009900004F0FEFE41F20301884217D8FFE70298F7
:1009A00042F60151C0F23111884207D3FFE70398A4
:1009B0000168886840F48070886006E003980168E8
:1009C000886820F480708860FFE743E00298400860
:1009D0000290029845F61061C0F25F01884209D882
:1009E000FFE703980068806820F440700399096865
:1009F00088602EE002984BF62041C0F2BE0188428A
:100A00000AD8FFE7039800688068012161F3092094
:100A10000399096888601BE0029847F64001C0F21C
:100A20007D1188420AD8FFE7039800688068022198
:100A300061F3092003990968886008E00398006859
:100A4000806840F44070039909688860FFE7FFE719
:100A5000FFE7FFE704B080BDFFE7FEE7000000000E
:100A600080B540F2F840C2F2004002F059FB80BD70
:100A700083B002900298016801201022C4F20202A1
:100A80009142009000F0A380FFE7029801680120E6
:100A90002822C4F202029142009000F09880FFE701
:100AA0000298016801204022C4F2020291420090A3
:100AB00000F08D80FFE70298016801205822C4F2FF
:100AC00002029142009000F08280FFE702980168E4
:100AD00001207022C4F202029142009077D0FFE719
:100AE0000298016801208822C4F20202914200901B
:100AF0006DD0FFE7029801680120A022C4F2020233
:100B00009142009063D0FFE7029801680120B8226B
:100B1000C4F202029142009059D0FFE702980168A6
:100B2000012040F21042C4F20202914200904ED0E5
:100B3000FFE702980168012040F22842C4F2020255
:100B40009142009043D0FFE702980168012040F2F3
:100B50004042C4F202029142009038D0FFE702986E
:100B60000168012040F25842C4F202029142009012
:100B70002DD0FFE702980168012040F27042C4F2D4
:100B800002029142009022D0FFE702980168012002
:100B900040F28842C4F202029142009017D0FFE76F
:100BA00002980168012040F2A042C4F20202914280
:100BB00000900CD0FFE7029800684FF64831CBF662
:100BC000FD710844B0FA80F040090090FFE70098FA
:100BD000C00740B3FFE70298007810384AF6AB210F
:100BE000CAF6AA21A0FB011000090190019800F0AB
:100BF00007014FF2BC20C0F60000405C0299C865B6
:100C00000198042807D3FFE702990868042262F3D9
:100C10000900886506E00299086840F2FF329043B7
:100C20008865FFE705E00299086820F0FF00886505
:100C3000FFE70298806D03B07047000000000000DD
:100C400084B0039003980068019003980168012024
:100C500045F20842C5F60202914200904ED0FFE7ED
:100C600003980168012045F21C42C5F60202914238
:100C7000009043D0FFE703980168012045F230421D
:100C8000C5F602029142009038D0FFE70398016850
:100C9000012045F24442C5F60202914200902DD057
:100CA000FFE703980168012045F25842C5F60202A9
:100CB0009142009022D0FFE703980168012045F29D
:100CC0006C42C5F602029142009017D0FFE70398EC
:100CD0000168012045F28042C5F60202914200906F
:100CE0000CD0FFE7039800684AF66C31CAF2FD7138
:100CF0000844B0FA80F040090090FFE70098C00770
:100D000010B3FFE70398007808384CF6CD41CCF6D5
:100D1000CC41A0FB011000090290029945F60000A9
:100D2000C5F6020000EB810003990866039945F6B9
:100D30008000C5F602004866029800F01F010120FD
:100D400088400399886635E00398007810384AF6A1
:100D5000AB21CAF6AA21A0FB01100009029001985C
:100D600040F2B841C4F2020188420CD8FFE7019872
:100D700040F21041C4F20201884204D3FFE7029816
:100D800008300290FFE7029940F60000C4F202002A
:100D900000EB810003990866039940F68000C4F2D5
:100DA00002004866029800F01F0101208840039964
:100DB0008866FFE704B0704783B00290029800791C
:100DC00001900198002800F08A80FFE70198082828
:100DD00000F28580FFE702980168012045F2084291
:100DE000C5F60202914200904ED0FFE702980168DA
:100DF000012045F21C42C5F602029142009043D008
:100E0000FFE702980168012045F23042C5F6020270
:100E10009142009038D0FFE702980168012045F226
:100E20004442C5F60202914200902DD0FFE702989D
:100E30000168012045F25842C5F602029142009035
:100E400022D0FFE702980168012045F26C42C5F606
:100E500002029142009017D0FFE70298016801203A
:100E600045F28042C5F60202914200900CD0FFE7A5
:100E7000029800684AF66C31CAF2FD710844B0FA73
:100E800080F040090090FFE70098C00780B1FFE7BD
:100E9000019945F6FC00C5F6020000EB81000299BD
:100EA000C866029945F64010C5F6020008670FE0D3
:100EB000019940F6FC00C4F2020000EB81000299A7
:100EC000C866029940F64010C4F202000867FFE7C6
:100ED0000198411E0120884002994867FFE703B04E
:100EE000704700000000000085B0049000208DF8DD
:100EF0000F000498806918BBFFE70498806A02908D
:100F000003281BD80299DFE801F0020D02180498AB
:100F100090F82F00C00720B1FFE701208DF80F00E7
:100F2000FFE70CE00498C06AB0F1C07F04D1FFE78E
:100F300001208DF80F00FFE701E000E0FFE747E048
:100F400004988069B0F5005F26D1FFE70498806AB5
:100F5000019003281ED80199DFE801F00206021172
:100F600001208DF80F0016E0049890F82F00C007BC
:100F700020B1FFE701208DF80F00FFE70BE0049898
:100F8000C06AB0F1C07F04D1FFE701208DF80F00E7
:100F9000FFE700E0FFE71AE00498806A009003286A
:100FA00004D3FFE70098032804D00EE001208DF859
:100FB0000F000BE0049890F82F00C00720B1FFE766
:100FC00001208DF80F00FFE700E0FFE7FFE7FFE7F4
:100FD0009DF80F0005B0704789B008900791069200
:100FE00005930898806D04900898806D0390089888
:100FF000016801201022C4F202029142029000F026
:101000000381FFE70898016801202822C4F2020248
:101010009142029000F0F880FFE7089801680120F3
:101020004022C4F202029142029000F0ED80FFE7FC
:101030000898016801205822C4F2020291420290ED
:1010400000F0E280FFE70898016801207022C4F2F6
:1010500002029142029000F0D780FFE708980168F1
:1010600001208822C4F202029142029000F0CC805A
:10107000FFE7089801680120A022C4F20202914211
:10108000029000F0C180FFE7089801680120B822B3
:10109000C4F202029142029000F0B680FFE7089885
:1010A0000168012040F21042C4F202029142029013
:1010B00000F0AA80FFE708980168012040F228426A
:1010C000C4F202029142029000F09E80FFE708986D
:1010D0000168012040F24042C4F2020291420290B3
:1010E00000F09280FFE708980168012040F2584222
:1010F000C4F202029142029000F08680FFE7089855
:101100000168012040F27042C4F202029142029052
:101110007AD0FFE708980168012040F28842C4F2C3
:101120000202914202906FD0FFE708980168012007
:1011300040F2A042C4F202029142029064D0FFE762
:1011400008980168012040F2B842C4F202029142BC
:10115000029059D0FFE708980168012045F2084243
:10116000C5F60202914202904ED0FFE7089801684E
:10117000012045F21C42C5F602029142029043D082
:10118000FFE708980168012045F23042C5F60202E7
:101190009142029038D0FFE708980168012045F29B
:1011A0004442C5F60202914202902DD0FFE7089812
:1011B0000168012045F25842C5F6020291420290B0
:1011C00022D0FFE708980168012045F26C42C5F67D
:1011D00002029142029017D0FFE7089801680120AF
:1011E00045F28042C5F60202914202900CD0FFE720
:1011F000089800684AF66C31CAF2FD710844B0FAEA
:1012000080F040090290FFE70298C00770B1FFE745
:101210000898416E806E48600898C06E28B1FFE75C
:101220000898016F406F4860FFE7FFE70898016882
:1012300001201022C4F202029142019000F0A3802A
:10124000FFE70898016801202822C4F202029142B7
:10125000019000F09880FFE7089801680120402283
:10126000C4F202029142019000F08D80FFE70898DD
:10127000016801205822C4F202029142019000F05C
:101280008280FFE70898016801207022C4F2020200
:101290009142019077D0FFE70898016801208822E9
:1012A000C4F20202914201906DD0FFE708980168F4
:1012B0000120A022C4F202029142019063D0FFE714
:1012C000089801680120B822C4F2020291420190FC
:1012D00059D0FFE708980168012040F21042C4F29B
:1012E0000202914201904ED0FFE708980168012068
:1012F00040F22842C4F202029142019043D0FFE73B
:1013000008980168012040F24042C4F20202914272
:10131000019038D0FFE708980168012040F2584258
:10132000C4F20202914201902DD0FFE708980168B3
:10133000012040F27042C4F202029142019022D098
:10134000FFE708980168012040F28842C4F20202D7
:101350009142019017D0FFE708980168012040F200
:10136000A042C4F20202914201900CD0FFE708981B
:1013700000684FF64831CBF6FD710844B0FA80F0B2
:1013800040090190FFE70198C00750B3FFE70898B4
:10139000C06D00F01F013F208840049988600898C4
:1013A0000168086820F48020086005980899096899
:1013B000486008988068402809D1FFE70698089996
:1013C00009688860079808990968C86008E0079864
:1013D000089909688860069808990968C860FFE755
:1013E00082E008980168012045F20842C5F6020231
:1013F000914200904ED0FFE708980168012045F225
:101400001C42C5F602029142009043D0FFE70898C3
:101410000168012045F23042C5F602029142009077
:1014200038D0FFE708980168012045F24442C5F62C
:101430000202914200902DD0FFE708980168012038
:1014400045F25842C5F602029142009022D0FFE7D1
:1014500008980168012045F26C42C5F602029142EB
:10146000009017D0FFE708980168012045F28042FC
:10147000C5F60202914200900CD0FFE70898006880
:101480004AF66C31CAF2FD710844B0FA80F04009A6
:101490000090FFE70098C00720B3FFE70898C06DF1
:1014A00000F01F01012088400399486005980899C1
:1014B0000968486008988068402809D1FFE70698C5
:1014C000089909688860079808990968C86008E061
:1014D0000798089909688860069808990968C8609B
:1014E000FFE700E0FFE7FFE709B0704700000000FA
:1014F000704700000000000072B6FFE7FEE7000042
:1015000080B5B0B01E901D9100208DF87300199029
:101510001E9890F83800012801D1FFE700E0FFE7AE
:101520001D98C0680021C4F2FF71884201D0FFE716
:101530001EE01E98006842F20001C4F202018842D7
:1015400001D1FFE7FFE71E98006842F20011C4F2E4
:101550000201884201D1FFE7FFE71E98006846F2CA
:101560000001C5F60201884201D1FFE7FFE7FFE76E
:10157000FFE71E9890F85000012804D1FFE70220F1
:101580008DF87F0076E31E99012081F85000FFE777
:10159000FFE71E98006809F0FBFE002840F0568324
:1015A000FFE71D980068000330B9FFE71D98006849
:1015B000C0F3846016900BE01D9800682F902F9860
:1015C00090FAA0F027902798B0FA80F01690FFE7E5
:1015D000169800F01F01012000FA01F21E98016820
:1015E000C8691043C8611E9800681D990A68496857
:1015F00009F0D6FE1E98006809F0CAFE18901E98E1
:10160000006809F0A5FE17901898002840F0B580F2
:10161000FFE71798002840F0B080FFE71E980068A9
:101620001D9A1168926809F0DBFE41F20000C5F6D0
:101630000040006800F07040B0F1805F0BD1FFE720
:101640001D9840691E990968C96801F01C01490884
:10165000884015901FE01E980068C068C0060028EA
:101660000BD4FFE71D9840691E990968C96801F00D
:101670001C014908884014900AE01D9840691E9991
:101680000968C96801F01001490888401490FFE713
:1016900014981590FFE715981B901D980069042871
:1016A00021D0FFE71E9800681D990A6809691B9BF5
:1016B00009F002FF1E9800681D9A1169527E013AD6
:1016C000B2FA82F25209D20709F012FF1E9800689E
:1016D0001D9A1169127E013AB2FA82F25209D202BF
:1016E00009F0D6FE48E01E980068006E00F0F84051
:1016F0001D990968B0EB816F07D1FFE71E9801685B
:10170000086E20F000400866FFE71E980068406EF3
:1017100000F0F8401D990968B0EB816F07D1FFE731
:101720001E980168486E20F000404866FFE71E984A
:101730000068806E00F0F8401D990968B0EB816F79
:1017400007D1FFE71E980168886E20F00040886688
:10175000FFE71E980068C06E00F0F8401D99096808
:10176000B0EB816F07D1FFE71E980168C86E20F0CB
:101770000040C866FFE7FFE7FFE71E98006809F032
:10178000F7FD002840F06182FFE71E9800681D9A6F
:101790001168D26809F040FE1D98C0680021C4F2AB
:1017A000FF71884240F0ED80FFE71E9800681390BB
:1017B0001D980068000330B9FFE71D980068C0F36A
:1017C000846012900BE01D9800682E902E9890FA7D
:1017D000A0F026902698B0FA80F01290FFE71298B9
:1017E000013000F01F0009285FD8FFE71D9800684E
:1017F000000330B9FFE71D980068C0F384601190C2
:101800000BE01D9800682D902D9890FAA0F025907F
:101810002598B0FA80F01190FFE71198013000F0A0
:101820001F00800610901D980068000330B9FFE784
:101830001D980068C0F384600F900BE01D9800684D
:101840002C902C9890FAA0F024902498B0FA80F074
:101850000F90FFE710980F99013101F01F0201214D
:10186000914008430E901D980068000330B9FFE7CF
:101870001D980068C0F384600D900BE01D9800680F
:101880002B902B9890FAA0F023902398B0FA80F038
:101890000D90FFE70E980D99013101F01F0101EB4A
:1018A000410140EA01500C9064E01D98006800037B
:1018B00030B9FFE71D980068C0F384600B900BE01F
:1018C0001D9800682A902A9890FAA0F022902298F9
:1018D000B0FA80F00B90FFE70B98013000F01F008A
:1018E00080060A901D980068000330B9FFE71D9834
:1018F0000068C0F3846009900BE01D98006829908F
:10190000299890FAA0F021902198B0FA80F00990DF
:10191000FFE70A980999013101F01F020121914066
:10192000084308901D980068000330B9FFE71D9830
:101930000068C0F3846007900BE01D980068289051
:10194000289890FAA0F020902098B0FA80F00790A4
:10195000FFE708990798013000F01F0000EB4002F4
:101960000020CFF6206000EB0250084340F00070EA
:101970000C90FFE713980C991D9A926809F030FDBE
:10198000FFE71D98C0780006002840F15D81FFE761
:101990001E980168012042F20002C4F20202914244
:1019A00006900CD0FFE71E9800684DF60071CBF64C
:1019B000FD710844B0FA80F040090690FFE70698F0
:1019C000C10746F20030C5F6020000291CBF42F2F2
:1019D0000030C4F2020009F0B3FC1A901E980168AE
:1019E0004FF0010042F20002C4F20202914205905F
:1019F0000CD0FFE71E9800684DF60071CBF6FD7124
:101A00000844B0FA80F040090590FFE70598C10747
:101A100046F20030C5F6020000291CBF42F2003039
:101A2000C4F2020042F20031C4F20201884212D133
:101A3000FFE742F20000C4F2020009F099FC0390B3
:101A400042F20010C4F2020009F092FC0146039831
:101A50000843049007E046F20000C5F6020009F0D2
:101A600087FC0490FFE70498002840F0E380FFE73C
:101A70001D9800680021CCF68431884255D1FFE7DB
:101A80009DF86A00000600284FD4FFE71E98006802
:101A900046F20001C5F60201884245D1FFE71E98D3
:101AA0000168012042F20002C4F202029142029057
:101AB0000CD0FFE71E9800684DF60071CBF6FD7163
:101AC0000844B0FA80F040090290FFE70298C1078D
:101AD00046F20030C5F6020000291CBF42F2003079
:101AE000C4F202001A9941F4000109F0C1FC40F26D
:101AF0000000C2F2004000684FEA901042F66351C5
:101B0000C0F23E51A0FB01104FEA90114FF00200CD
:101B100000EB41001990FFE7199820B1FFE71998F1
:101B200001381990F8E7FFE783E01D98006800216D
:101B3000CCF25271884238D1FFE79DF86B00C007A4
:101B400098BBFFE71E98006846F20001C5F6020147
:101B5000884229D1FFE71E980168012042F2000265
:101B6000C4F20202914201900CD0FFE71E98006877
:101B70004DF60071CBF6FD710844B0FA80F04009D3
:101B80000190FFE70198C10746F20030C5F6020058
:101B900000291CBF42F20030C4F202001A9941F041
:101BA000807109F065FCFFE742E01D9800680021A4
:101BB000CCF6B871884239D1FFE79DF86A0040063B
:101BC000002833D4FFE71E98006846F20001C5F6EE
:101BD0000201884229D1FFE71E980168012042F2E4
:101BE0000002C4F20202914200900CD0FFE71E985E
:101BF00000684DF60071CBF6FD710844B0FA80F034
:101C000040090090FFE70098C10746F20030C5F692
:101C1000020000291CBF42F20030C4F202001A99EF
:101C200041F4800109F024FCFFE700E0FFE7FFE753
:101C3000FFE708E01E99486D40F02000486501204C
:101C40008DF87300FFE7FFE7FFE708E01E99486D96
:101C500040F02000486501208DF87300FFE7FFE7A2
:101C60001E99002081F85000FFE79DF873008DF861
:101C70007F00FFE79DF87F0030B080BD00000000CE
:101C800010B58CB00A9000208DF8270006900A98B5
:101C900020B9FFE701208DF82F00D1E10A98C06834
:101CA00038B1FFE70A98007F012801D1FFE7FFE77D
:101CB000FFE70A98406D50B9FFE70A9800F0C4F9B1
:101CC0000A99002088650A9981F85000FFE70A9870
:101CD000006809F045FB28B1FFE70A98006809F0A1
:101CE00013FBFFE70A98006809F04AFBE8B9FFE731
:101CF0000A98006809F014FB40F20000C2F20040AC
:101D00000068800942F66351C0F23E51A0FB010118
:101D1000012000EB91100690FFE7069820B1FFE745
:101D2000069801380690F8E7FFE70A98006809F07E
:101D300027FB70B9FFE70A99486D40F0100048652D
:101D40000A99886D40F00100886501208DF8270010
:101D5000FFE70A98006809F01BFB07900A98406D9E
:101D6000C006002800F15E81FFE70798002840F0D8
:101D70005981FFE70A98406D40F0020020F480701E
:101D80000A9948650A98006809F0F2FA002870D1AB
:101D9000FFE70A980168012042F20002C4F2020241
:101DA000914203900CD0FFE70A9800684DF600714D
:101DB000CBF6FD710844B0FA80F040090390FFE7CC
:101DC0000398C10746F20030C5F6020000291CBF87
:101DD00042F20030C4F2020042F20031C4F20201C9
:101DE000884212D1FFE742F20000C4F2020009F07B
:101DF000BFFA019042F20010C4F2020009F0B8FAF2
:101E0000014601980843029007E046F20000C5F63B
:101E1000020009F0ADFA0290FFE7029840BBFFE72D
:101E20000A980168012042F20002C4F202029142C3
:101E300000900CD0FFE70A9800684DF60071CBF6D1
:101E4000FD710844B0FA80F040090090FFE7009867
:101E5000C10746F20030C5F6020000291CBF42F25D
:101E60000030C4F202000A99496809F0F1FAFFE76C
:101E7000FFE703F08DFC41F20401884213D3FFE732
:101E80000A98806810280ED1FFE70A994A7D086BEE
:101E900040EA42308A681043097F40EA014040F03E
:101EA0000C0008900BE00A994A7D086B40EA42302A
:101EB0008A681043097F40EA01400890FFE70A98CA
:101EC000007F01280BD1FFE70A98016A0020CFF6B6
:101ED000FE7000EB4141089808430890FFE70A981C
:101EE000406A50B1FFE70A99486A896A00F478703D
:101EF0000143089808430890FFE70A980068C06803
:101F00004CF20301CFF6F0710840089908430A9992
:101F10000968C8600A98006809F03AFA05900A98BA
:101F2000006809F015FA04900598002859D1FFE7D8
:101F30000498002855D1FFE70A98017DC06A40EA5D
:101F4000813008900A980068C06844F20301884311
:101F5000089908430A990968C8600A9890F83800F7
:101F6000012829D1FFE70A98406A20B1FFE70A98C3
:101F7000806A08B9FFE7FFE70A98006800694FF632
:101F80001E01CFF6004100EA01020A9B1968DC6BD2
:101F9000D3F840E0D3F844C00020CFF6FF7000EB48
:101FA000044040EA0E0040EA0C009B6C18431043CA
:101FB00040F00100086106E00A980168086920F015
:101FC00001000861FFE70A980068006920F070408E
:101FD0000A9A1168526B104308610A98FEF730FCA8
:101FE000FFE70A98C06801280CD1FFE70A9800684B
:101FF000006B20F00F000A9A11689269013A1043B1
:10200000086306E00A980168086B20F00F00086377
:10201000FFE70A98406D40F0010020F002000A99A5
:10202000486508E00A99486D40F0100048650120B5
:102030008DF82700FFE79DF827008DF82F00FFE7B8
:102040009DF82F000CB010BD80B5B4B0339002A83D
:10205000C021FEF775F93398006846F20001C5F615
:102060000201884243D1FFE7002003904FF4002192
:10207000029120210491812105910221069107916D
:102080000891C02109910A900B902B9002A805F0AD
:10209000EFF818B1FFE7FFF72FFAFFE7FFE744F289
:1020A000E040C5F60200016841F0807101600068FF
:1020B00000F0807001900198FFE7FFE744F2E040F4
:1020C000C5F60200016841F004010160006800F0FB
:1020D000040000900098FFE74FF08061084607F089
:1020E000EBFA4FF00061084607F0E6FAFFE734B07C
:1020F00080BD00000000000080B58AB0089003F0A9
:102100004FFB0490089828B9FFE701208DF82700BD
:1021100000F0AABC089890F8350002280ED0FFE71E
:10212000089980204865FFE70899002081F834006D
:10213000FFE701208DF8270000F096BC08980168A1
:1021400001201022C4F202029142039000F0A38009
:10215000FFE70898016801202822C4F20202914298
:10216000039000F09880FFE7089801680120402262
:10217000C4F202029142039000F08D80FFE70898BC
:10218000016801205822C4F202029142039000F03B
:102190008280FFE70898016801207022C4F20202E1
:1021A0009142039077D0FFE70898016801208822C8
:1021B000C4F20202914203906DD0FFE708980168D3
:1021C0000120A022C4F202029142039063D0FFE7F3
:1021D000089801680120B822C4F2020291420390DB
:1021E00059D0FFE708980168012040F21042C4F27C
:1021F0000202914203904ED0FFE708980168012047
:1022000040F22842C4F202029142039043D0FFE719
:1022100008980168012040F24042C4F20202914253
:10222000039038D0FFE708980168012040F2584237
:10223000C4F20202914203902DD0FFE70898016892
:10224000012040F27042C4F202029142039022D077
:10225000FFE708980168012040F28842C4F20202B8
:102260009142039017D0FFE708980168012040F2DF
:10227000A042C4F20202914203900CD0FFE70898FA
:1022800000684FF64831CBF6FD710844B0FA80F093
:1022900040090390FFE70398C00780B1FFE7089863
:1022A0000168086820F01E00086008980168486905
:1022B00020F08000486108980068059009E00898BF
:1022C0000168086820F00E00086008980068059012
:1022D000FFE70898016801201022C4F2020291422F
:1022E000029000F00381FFE708980168012028228E
:1022F000C4F202029142029000F0F880FFE70898D1
:10230000016801204022C4F202029142029000F0D2
:10231000ED80FFE70898016801205822C4F202020C
:102320009142029000F0E280FFE7089801680120E6
:102330007022C4F202029142029000F0D780FFE7BF
:102340000898016801208822C4F20202914202909A
:1023500000F0CC80FFE7089801680120A022C4F2B9
:1023600002029142029000F0C180FFE708980168E4
:102370000120B822C4F202029142029000F0B6801D
:10238000FFE708980168012040F21042C4F20202FF
:102390009142029000F0AA80FFE7089801680120AE
:1023A00040F22842C4F202029142029000F09E8064
:1023B000FFE708980168012040F24042C4F202029F
:1023C0009142029000F09280FFE708980168012096
:1023D00040F25842C4F202029142029000F086801C
:1023E000FFE708980168012040F27042C4F202023F
:1023F000914202907AD0FFE708980168012040F2EC
:102400008842C4F20202914202906FD0FFE708981E
:102410000168012040F2A042C4F2020291420290FF
:1024200064D0FFE708980168012040F2B842C4F286
:1024300002029142029059D0FFE7089801680120FA
:1024400045F20842C5F60202914202904ED0FFE7E3
:1024500008980168012045F21C42C5F6020291422B
:10246000029043D0FFE708980168012045F230420E
:10247000C5F602029142029038D0FFE70898016841
:10248000012045F24442C5F60202914202902DD04D
:10249000FFE708980168012045F25842C5F602029C
:1024A0009142029022D0FFE708980168012045F28E
:1024B0006C42C5F602029142029017D0FFE70898DD
:1024C0000168012045F28042C5F602029142029065
:1024D0000CD0FFE7089800684AF66C31CAF2FD712B
:1024E0000844B0FA80F040090290FFE70298C00764
:1024F00038B1FFE70898016E086820F48070086022
:10250000FFE7089800681021C4F20201884200F039
:102510008180FFE7089800682821C4F20201884200
:1025200078D0FFE7089800684021C4F20201884291
:1025300070D0FFE7089800685821C4F20201884271
:1025400068D0FFE7089800687021C4F20201884251
:1025500060D0FFE7089800688821C4F20201884231
:1025600058D0FFE708980068A021C4F20201884211
:1025700050D0FFE708980068B821C4F202018842F1
:1025800048D0FFE70898006840F21041C4F2020109
:1025900088423FD0FFE70898006840F22841C4F223
:1025A0000201884236D0FFE70898006840F24041B7
:1025B000C4F2020188422DD0FFE70898006840F27B
:1025C0005841C4F20201884224D0FFE7089800680D
:1025D00040F27041C4F2020188421BD0FFE7089824
:1025E000006840F28841C4F20201884212D0FFE73D
:1025F0000898006840F2A041C4F20201884209D064
:10260000FFE70898006840F2B841C4F2020188422E
:1026100007D1FFE708980168086820F0010008600A
:1026200006E008980168086820F001000860FFE7EC
:10263000FFE705980068C007C8B1FFE703F0B0F8EE
:102640000499401A062811D3FFE70899202048650D
:102650000899032081F83500FFE70899002081F8E8
:102660003400FFE701208DF82700FDE1E1E708983D
:10267000016801201022C4F202029142019000F090
:10268000A380FFE70898016801202822C4F2020213
:102690009142019000F09880FFE7089801680120BE
:1026A0004022C4F202029142019000F08D80FFE7C7
:1026B0000898016801205822C4F202029142019058
:1026C00000F08280FFE70898016801207022C4F2C0
:1026D00002029142019077D0FFE70898016801203B
:1026E0008822C4F20202914201906DD0FFE708985F
:1026F00001680120A022C4F202029142019063D03D
:10270000FFE7089801680120B822C4F20202914252
:10271000019059D0FFE708980168012040F210426B
:10272000C4F20202914201904ED0FFE7089801687E
:10273000012040F22842C4F202029142019043D0AB
:10274000FFE708980168012040F24042C4F202020B
:102750009142019038D0FFE708980168012040F2CB
:102760005842C4F20202914201902DD0FFE708982E
:102770000168012040F27042C4F2020291420190CD
:1027800022D0FFE708980168012040F28842C4F295
:1027900002029142019017D0FFE7089801680120DA
:1027A00040F2A042C4F20202914201900CD0FFE735
:1027B000089800684FF64831CBF6FD710844B0FA2E
:1027C00080F040090190FFE70198C00760B1FFE782
:1027D0000898806D07900898C06D00F01F013F2099
:1027E0008840079988600BE00898806D06900898EB
:1027F000C06D00F01F010120884006994860FFE786
:102800000898016801201022C4F20202914200904F
:1028100000F00381FFE70898016801202822C4F234
:1028200002029142009000F0F880FFE708980168EA
:1028300001204022C4F202029142009000F0ED809B
:10284000FFE70898016801205822C4F20202914271
:10285000009000F0E280FFE70898016801207022F4
:10286000C4F202029142009000F0D780FFE708987E
:10287000016801208822C4F202029142009000F017
:10288000CC80FFE7089801680120A022C4F2020270
:102890009142009000F0C180FFE708980168012094
:1028A000B822C4F202029142009000F0B680FFE725
:1028B00008980168012040F21042C4F202029142DD
:1028C000009000F0AA80FFE708980168012040F21C
:1028D0002842C4F202029142009000F09E80FFE77D
:1028E00008980168012040F24042C4F2020291427D
:1028F000009000F09280FFE708980168012040F204
:102900005842C4F202029142009000F08680FFE734
:1029100008980168012040F27042C4F2020291421C
:1029200000907AD0FFE708980168012040F28842C1
:10293000C4F20202914200906FD0FFE7089801684C
:10294000012040F2A042C4F202029142009064D001
:10295000FFE708980168012040F2B842C4F2020281
:102960009142009059D0FFE708980168012045F294
:102970000842C5F60202914200904ED0FFE7089847
:102980000168012045F21C42C5F602029142009006
:1029900043D0FFE708980168012045F23042C5F6B0
:1029A00002029142009038D0FFE7089801680120A8
:1029B00045F24442C5F60202914200902DD0FFE755
:1029C00008980168012045F25842C5F6020291427A
:1029D000009022D0FFE708980168012045F26C4280
:1029E000C5F602029142009017D0FFE708980168EF
:1029F000012045F28042C5F60202914200900CD0BF
:102A0000FFE7089800684AF66C31CAF2FD71084485
:102A1000B0FA80F040090090FFE70098C007A0B12D
:102A2000FFE70898416E806E48600898C06E58B104
:102A3000FFE70898C16E086820F480700860089865
:102A4000016F406F4860FFE7FFE70899012081F8B8
:102A50003500FFE70899002081F83400FFE7FFE721
:102A600000208DF82700FFE79DF827000AB080BD01
:102A700080B586B00490049820B9FFE701208DF856
:102A8000170046E3049890F83500022807D0FFE7C6
:102A900004998020486501208DF8170039E30498D7
:102AA000016801201022C4F202029142029000F05B
:102AB000A380FFE70498016801202822C4F20202E3
:102AC0009142029000F09880FFE70498016801208D
:102AD0004022C4F202029142029000F08D80FFE792
:102AE0000498016801205822C4F202029142029027
:102AF00000F08280FFE70498016801207022C4F290
:102B000002029142029077D0FFE704980168012009
:102B10008822C4F20202914202906DD0FFE704982D
:102B200001680120A022C4F202029142029063D007
:102B3000FFE7049801680120B822C4F20202914222
:102B4000029059D0FFE704980168012040F210423A
:102B5000C4F20202914202904ED0FFE7049801684D
:102B6000012040F22842C4F202029142029043D076
:102B7000FFE704980168012040F24042C4F20202DB
:102B80009142029038D0FFE704980168012040F29A
:102B90005842C4F20202914202902DD0FFE70498FD
:102BA0000168012040F27042C4F202029142029098
:102BB00022D0FFE704980168012040F28842C4F265
:102BC00002029142029017D0FFE7049801680120A9
:102BD00040F2A042C4F20202914202900CD0FFE700
:102BE000049800684FF64831CBF6FD710844B0FAFE
:102BF00080F040090290FFE70298C007002800F02B
:102C00009D80FFE70499042081F83500049800684E
:102C10001021C4F20201884200F08180FFE704988D
:102C200000682821C4F20201884278D0FFE70498A6
:102C300000684021C4F20201884270D0FFE7049886
:102C400000685821C4F20201884268D0FFE7049866
:102C500000687021C4F20201884260D0FFE7049846
:102C600000688821C4F20201884258D0FFE7049826
:102C70000068A021C4F20201884250D0FFE7049806
:102C80000068B821C4F20201884248D0FFE70498E6
:102C9000006840F21041C4F2020188423FD0FFE7D1
:102CA0000498006840F22841C4F20201884236D0FC
:102CB000FFE70498006840F24041C4F202018842F4
:102CC0002DD0FFE70498006840F25841C4F2020199
:102CD000884224D0FFE70498006840F27041C4F2B3
:102CE000020188421BD0FFE70498006840F2884147
:102CF000C4F20201884212D0FFE70498006840F253
:102D0000A041C4F20201884209D0FFE7049800689C
:102D100040F2B841C4F20201884207D1FFE70498AB
:102D20000168086820F00100086006E00498016866
:102D3000086820F001000860FFE7E5E104980168F9
:102D4000086820F00E000860049800681021C4F2A2
:102D50000201884200F08180FFE704980068282182
:102D6000C4F20201884278D0FFE70498006840214D
:102D7000C4F20201884270D0FFE70498006858212D
:102D8000C4F20201884268D0FFE70498006870210D
:102D9000C4F20201884260D0FFE7049800688821ED
:102DA000C4F20201884258D0FFE704980068A021CD
:102DB000C4F20201884250D0FFE704980068B821AD
:102DC000C4F20201884248D0FFE70498006840F24C
:102DD0001041C4F2020188423FD0FFE70498006826
:102DE00040F22841C4F20201884236D0FFE704983D
:102DF000006840F24041C4F2020188422DD0FFE752
:102E00000498006840F25841C4F20201884224D07C
:102E1000FFE70498006840F27041C4F20201884262
:102E20001BD0FFE70498006840F28841C4F2020119
:102E3000884212D0FFE70498006840F2A041C4F233
:102E40000201884209D0FFE70498006840F2B841C7
:102E5000C4F20201884207D1FFE7049801680868BC
:102E600020F00100086006E004980168086820F07E
:102E700001000860FFE70498016801201022C4F2F5
:102E800002029142019000F00381FFE7049801687B
:102E900001202822C4F202029142019000F0F88041
:102EA000FFE70498016801204022C4F20202914227
:102EB000019000F0ED80FFE704980168012058229E
:102EC000C4F202029142019000F0E280FFE7049810
:102ED000016801207022C4F202029142019000F0C8
:102EE000D780FFE70498016801208822C4F202021B
:102EF0009142019000F0CC80FFE704980168012026
:102F0000A022C4F202029142019000F0C180FFE7CA
:102F1000049801680120B822C4F202029142019093
:102F200000F0B680FFE704980168012040F21042EB
:102F3000C4F202029142019000F0AA80FFE70498D7
:102F40000168012040F22842C4F20202914201903D
:102F500000F09E80FFE704980168012040F24042A3
:102F6000C4F202029142019000F09280FFE70498BF
:102F70000168012040F25842C4F2020291420190DD
:102F800000F08680FFE704980168012040F270425B
:102F9000C4F20202914201907AD0FFE704980168DE
:102FA000012040F28842C4F20202914201906FD0A7
:102FB000FFE704980168012040F2A042C4F2020237
:102FC0009142019064D0FFE704980168012040F22B
:102FD000B842C4F202029142019059D0FFE704982E
:102FE0000168012045F20842C5F6020291420190B3
:102FF0004ED0FFE704980168012045F21C42C5F657
:1030000002029142019043D0FFE704980168012039
:1030100045F23042C5F602029142019038D0FFE7F6
:1030200004980168012045F24442C5F6020291422B
:1030300001902DD0FFE704980168012045F2584225
:10304000C5F602029142019022D0FFE70498016880
:10305000012045F26C42C5F602029142019017D060
:10306000FFE704980168012045F28042C5F602029C
:10307000914201900CD0FFE7049800684AF66C3149
:10308000CAF2FD710844B0FA80F040090190FFE7F0
:103090000198C00728B3FFE70498016E086820F480
:1030A000807008600498806D03900498C06D00F0F3
:1030B0001F0101208840039948600498416E806E8A
:1030C00048600498C06E58B1FFE70498C16E086864
:1030D00020F4807008600498016F406F4860FFE73B
:1030E000FFE70499012081F83500FFE704990020EB
:1030F00081F83400FFE70498006D20B1FFE70498E1
:10310000016D8847FFE7FFE7FFE700208DF8170014
:10311000FFE79DF8170006B080BD0000000000002A
:1031200080B590B00F9000200B9040F20000C2F2EA
:103130000040006848F2B511C1F64E31A0FB011005
:10314000800A0A900F98806D09900F98806D089002
:10315000099800680E90089800680D900F98016813
:1031600001201022C4F202029142079000F0A380D5
:10317000FFE70F98016801202822C4F20202914261
:10318000079000F09880FFE70F9801680120402227
:10319000C4F202029142079000F08D80FFE70F9881
:1031A000016801205822C4F202029142079000F007
:1031B0008280FFE70F98016801207022C4F20202AA
:1031C0009142079077D0FFE70F980168012088228D
:1031D000C4F20202914207906DD0FFE70F98016898
:1031E0000120A022C4F202029142079063D0FFE7BF
:1031F0000F9801680120B822C4F2020291420790A0
:1032000059D0FFE70F980168012040F21042C4F244
:103210000202914207904ED0FFE70F98016801200B
:1032200040F22842C4F202029142079043D0FFE7E5
:103230000F980168012040F24042C4F2020291421C
:10324000079038D0FFE70F980168012040F25842FC
:10325000C4F20202914207902DD0FFE70F98016857
:10326000012040F27042C4F202029142079022D043
:10327000FFE70F980168012040F28842C4F2020281
:103280009142079017D0FFE70F980168012040F2A4
:10329000A042C4F20202914207900CD0FFE70F98BF
:1032A00000684FF64831CBF6FD710844B0FA80F063
:1032B00040090790FFE70798C007002800F0138532
:1032C000FFE70E980F99C96D01F01F01C840000774
:1032D000002840F1B080FFE70F9800681021C4F289
:1032E0000201884200F08180FFE70F9800682821E2
:1032F000C4F20201884278D0FFE70F9800684021AD
:10330000C4F20201884270D0FFE70F98006858218C
:10331000C4F20201884268D0FFE70F98006870216C
:10332000C4F20201884260D0FFE70F98006888214C
:10333000C4F20201884258D0FFE70F980068A0212C
:10334000C4F20201884250D0FFE70F980068B8210C
:10335000C4F20201884248D0FFE70F98006840F2AB
:103360001041C4F2020188423FD0FFE70F98006885
:1033700040F22841C4F20201884236D0FFE70F989C
:10338000006840F24041C4F2020188422DD0FFE7BC
:103390000F98006840F25841C4F20201884224D0DC
:1033A000FFE70F98006840F27041C4F202018842C2
:1033B0001BD0FFE70F98006840F28841C4F2020179
:1033C000884212D0FFE70F98006840F2A041C4F293
:1033D0000201884209D0FFE70F98006840F2B84127
:1033E000C4F20201884207D1FFE70F980068006825
:1033F00000F00400069006E00F980068006800F0F6
:1034000008000690FFE70698A0B1FFE70F98016853
:10341000086820F0040008600F98C06D00F01F01DC
:1034200008208840099988600F99486D40F0010094
:103430004865FFE7FFE70E980F99C96D01F01F017E
:10344000C840C007002800F0A980FFE70F98006877
:103450001021C4F20201884200F08180FFE70F983A
:1034600000682821C4F20201884278D0FFE70F9853
:1034700000684021C4F20201884270D0FFE70F9833
:1034800000685821C4F20201884268D0FFE70F9813
:1034900000687021C4F20201884260D0FFE70F98F3
:1034A00000688821C4F20201884258D0FFE70F98D3
:1034B0000068A021C4F20201884250D0FFE70F98B3
:1034C0000068B821C4F20201884248D0FFE70F9893
:1034D000006840F21041C4F2020188423FD0FFE789
:1034E0000F98006840F22841C4F20201884236D0A9
:1034F000FFE70F98006840F24041C4F202018842A1
:103500002DD0FFE70F98006840F25841C4F2020145
:10351000884224D0FFE70F98006840F27041C4F25F
:10352000020188421BD0FFE70F98006840F28841F3
:10353000C4F20201884212D0FFE70F98006840F2FF
:10354000A041C4F20201884209D0FFE70F98006849
:1035500040F2B841C4F20201884207D1FFE70F9858
:103560000068406900F08000059005E00F98006851
:10357000006800200590FFE7059870B1FFE70F98FD
:10358000C06D00F01F0101208840099988600F99E3
:10359000486D40F002004865FFE7FFE70E980F997D
:1035A000C96D01F01F01C8404007002840F1A98003
:1035B000FFE70F9800681021C4F20201884200F072
:1035C0008180FFE70F9800682821C4F20201884239
:1035D00078D0FFE70F9800684021C4F202018842CA
:1035E00070D0FFE70F9800685821C4F202018842AA
:1035F00068D0FFE70F9800687021C4F2020188428A
:1036000060D0FFE70F9800688821C4F20201884269
:1036100058D0FFE70F980068A021C4F20201884249
:1036200050D0FFE70F980068B821C4F20201884229
:1036300048D0FFE70F98006840F21041C4F2020141
:1036400088423FD0FFE70F98006840F22841C4F25B
:103650000201884236D0FFE70F98006840F24041EF
:10366000C4F2020188422DD0FFE70F98006840F2B3
:103670005841C4F20201884224D0FFE70F98006845
:1036800040F27041C4F2020188421BD0FFE70F985C
:10369000006840F28841C4F20201884212D0FFE77C
:1036A0000F98006840F2A041C4F20201884209D09C
:1036B000FFE70F98006840F2B841C4F20201884267
:1036C00007D1FFE70F980068006800F0020004903F
:1036D00005E00F980068006800200490FFE7049858
:1036E00070B1FFE70F98C06D00F01F010420884003
:1036F000099988600F99486D40F004004865FFE71C
:10370000FFE70E980F99C96D01F01F01C840C00670
:10371000002840F1DE80FFE70F9800681021C4F216
:103720000201884200F08180FFE70F98006828219D
:10373000C4F20201884278D0FFE70F980068402168
:10374000C4F20201884270D0FFE70F980068582148
:10375000C4F20201884268D0FFE70F980068702128
:10376000C4F20201884260D0FFE70F980068882108
:10377000C4F20201884258D0FFE70F980068A021E8
:10378000C4F20201884250D0FFE70F980068B821C8
:10379000C4F20201884248D0FFE70F98006840F267
:1037A0001041C4F2020188423FD0FFE70F98006841
:1037B00040F22841C4F20201884236D0FFE70F9858
:1037C000006840F24041C4F2020188422DD0FFE778
:1037D0000F98006840F25841C4F20201884224D098
:1037E000FFE70F98006840F27041C4F2020188427E
:1037F0001BD0FFE70F98006840F28841C4F2020135
:10380000884212D0FFE70F98006840F2A041C4F24E
:103810000201884209D0FFE70F98006840F2B841E2
:10382000C4F20201884207D1FFE70F9800680068E0
:1038300000F00800039006E00F980068006800F0B0
:1038400004000390FFE70398002841D0FFE70F989A
:10385000C06D00F01F0110208840099988600F9802
:1038600000680068400300281AD5FFE70F98006839
:1038700000680003002809D4FFE70F98006C20B10E
:10388000FFE70F98016C8847FFE708E00F98806C0E
:1038900020B1FFE70F98816C8847FFE7FFE716E04C
:1038A0000F9800680068C005002807D4FFE70F984C
:1038B0000168086820F008000860FFE70F98006CB6
:1038C00020B1FFE70F98016C8847FFE7FFE7FFE7AC
:1038D000FFE70E980F99C96D01F01F01C8408006DF
:1038E000002840F12681FFE70F9800681021C4F2FC
:1038F0000201884200F08180FFE70F9800682821CC
:10390000C4F20201884278D0FFE70F980068402196
:10391000C4F20201884270D0FFE70F980068582176
:10392000C4F20201884268D0FFE70F980068702156
:10393000C4F20201884260D0FFE70F980068882136
:10394000C4F20201884258D0FFE70F980068A02116
:10395000C4F20201884250D0FFE70F980068B821F6
:10396000C4F20201884248D0FFE70F98006840F295
:103970001041C4F2020188423FD0FFE70F9800686F
:1039800040F22841C4F20201884236D0FFE70F9886
:10399000006840F24041C4F2020188422DD0FFE7A6
:1039A0000F98006840F25841C4F20201884224D0C6
:1039B000FFE70F98006840F27041C4F202018842AC
:1039C0001BD0FFE70F98006840F28841C4F2020163
:1039D000884212D0FFE70F98006840F2A041C4F27D
:1039E0000201884209D0FFE70F98006840F2B84111
:1039F000C4F20201884207D1FFE70F98006800680F
:103A000000F01000029006E00F980068006800F0D7
:103A100002000290FFE70298002800F08980FFE78B
:103A20000F98C06D00F01F01202088400999886020
:103A30000F9890F83500042837D1FFE70F980168F8
:103A4000086820F0160008600F980168486920F0A7
:103A5000800048610F98006C20B9FFE70F98806CD8
:103A600038B1FFE70F980168086820F00800086087
:103A7000FFE70F98C06D00F01F013F2088400999B3
:103A800088600F99012081F83500FFE70F99002029
:103A900081F83400FFE70F98006D20B1FFE70F9821
:103AA000016D8847FFE700F019BC0F9800680068B7
:103AB000400300281AD5FFE70F980068006800034C
:103AC000002809D4FFE70F98406C20B1FFE70F985A
:103AD000416C8847FFE708E00F98C06B20B1FFE713
:103AE0000F98C16B8847FFE7FFE720E00F98006859
:103AF0000068C005002811D4FFE70F980168086826
:103B000020F0100008600F99012081F83500FFE7D0
:103B10000F99002081F83400FFE7FFE70F98C06B92
:103B200020B1FFE70F98C16B8847FFE7FFE7FFE78A
:103B3000FFE70F98406D002800F0D480FFE70F9852
:103B4000406DC007002800F0C480FFE70F990420F3
:103B500081F835000F9800681021C4F202018842F4
:103B600000F08180FFE70F9800682821C4F202016D
:103B7000884278D0FFE70F9800684021C4F2020124
:103B8000884270D0FFE70F9800685821C4F2020104
:103B9000884268D0FFE70F9800687021C4F20201E4
:103BA000884260D0FFE70F9800688821C4F20201C4
:103BB000884258D0FFE70F980068A021C4F20201A4
:103BC000884250D0FFE70F980068B821C4F2020184
:103BD000884248D0FFE70F98006840F21041C4F2D5
:103BE000020188423FD0FFE70F98006840F2284169
:103BF000C4F20201884236D0FFE70F98006840F215
:103C00004041C4F2020188422DD0FFE70F980068BE
:103C100040F25841C4F20201884224D0FFE70F98D5
:103C2000006840F27041C4F2020188421BD0FFE7F5
:103C30000F98006840F28841C4F20201884212D015
:103C4000FFE70F98006840F2A041C4F202018842E9
:103C500009D0FFE70F98006840F2B841C4F20201B2
:103C6000884207D1FFE70F980168086820F001003B
:103C7000086006E00F980168086820F001000860FD
:103C8000FFE7FFE70B9801300B900A99884201D9B2
:103C9000FFE707E0FFE70F9800680068C00700280B
:103CA000F0D1FFE70F9800680068C00728B1FFE770
:103CB0000F99032081F8350004E00F99012081F865
:103CC0003500FFE7FFE70F99002081F83400FFE798
:103CD000FFE70F98C06C20B1FFE70F98C16C8847D1
:103CE000FFE7FFE7FAE20F980168012045F208427A
:103CF000C5F60202914201904ED0FFE70F9801688D
:103D0000012045F21C42C5F602029142019043D0C7
:103D1000FFE70F980168012045F23042C5F6020224
:103D20009142019038D0FFE70F980168012045F2D9
:103D30004442C5F60202914201902DD0FFE70F9850
:103D40000168012045F25842C5F6020291420190F5
:103D500022D0FFE70F980168012045F26C42C5F6BA
:103D600002029142019017D0FFE70F9801680120ED
:103D700045F28042C5F60202914201900CD0FFE765
:103D80000F9800684AF66C31CAF2FD710844B0FA27
:103D900080F040090190FFE70198C007002800F07B
:103DA0009B82FFE70F98006800680C900D980F99B0
:103DB000C96D01F01F01C8404007002840F1D780BD
:103DC000FFE79DF830004007002840F1D080FFE772
:103DD0000F98C06D00F01F010420884008994860CA
:103DE0009DF831000006002818D5FFE79DF8320045
:103DF000C00748B9FFE70F98806C20B1FFE70F9824
:103E0000816C8847FFE708E00F98006C20B1FFE75E
:103E10000F98016C8847FFE7FFE7A7E09DF83000A7
:103E20008006002800F19980FFE70F9800681021B4
:103E3000C4F20201884200F08180FFE70F98006819
:103E40002821C4F20201884278D0FFE70F98006869
:103E50004021C4F20201884270D0FFE70F98006849
:103E60005821C4F20201884268D0FFE70F98006829
:103E70007021C4F20201884260D0FFE70F98006809
:103E80008821C4F20201884258D0FFE70F980068E9
:103E9000A021C4F20201884250D0FFE70F980068C9
:103EA000B821C4F20201884248D0FFE70F980068A9
:103EB00040F21041C4F2020188423FD0FFE70F9860
:103EC000006840F22841C4F20201884236D0FFE780
:103ED0000F98006840F24041C4F2020188422DD0A0
:103EE000FFE70F98006840F25841C4F2020188428F
:103EF00024D0FFE70F98006840F27041C4F202013D
:103F000088421BD0FFE70F98006840F28841C4F256
:103F10000201884212D0FFE70F98006840F2A041EA
:103F2000C4F20201884209D0FFE70F98006840F20E
:103F3000B841C4F20201884207D1FFE70F98016837
:103F4000086820F00800086006E00F98016808681B
:103F500020F004000860FFE7FFE70F98006C20B135
:103F6000FFE70F98016C8847FFE7FFE7B3E10D9883
:103F70000F99C96D01F01F01C8408007002840F16A
:103F8000E180FFE79DF830008007002840F1DA80EB
:103F9000FFE70F98C06D00F01F01022088400899CC
:103FA00048609DF831000006002818D5FFE79DF80D
:103FB0003200C00748B9FFE70F98406C20B1FFE717
:103FC0000F98416C8847FFE708E00F98C06B20B15D
:103FD000FFE70F98C16B8847FFE7FFE7B1E09DF867
:103FE00030008006002800F1A380FFE70F980068EA
:103FF0001021C4F20201884200F08180FFE70F988F
:1040000000682821C4F20201884278D0FFE70F98A7
:1040100000684021C4F20201884270D0FFE70F9887
:1040200000685821C4F20201884268D0FFE70F9867
:1040300000687021C4F20201884260D0FFE70F9847
:1040400000688821C4F20201884258D0FFE70F9827
:104050000068A021C4F20201884250D0FFE70F9807
:104060000068B821C4F20201884248D0FFE70F98E7
:10407000006840F21041C4F2020188423FD0FFE7DD
:104080000F98006840F22841C4F20201884236D0FD
:10409000FFE70F98006840F24041C4F202018842F5
:1040A0002DD0FFE70F98006840F25841C4F202019A
:1040B000884224D0FFE70F98006840F27041C4F2B4
:1040C000020188421BD0FFE70F98006840F2884148
:1040D000C4F20201884212D0FFE70F98006840F254
:1040E000A041C4F20201884209D0FFE70F9800689E
:1040F00040F2B841C4F20201884207D1FFE70F98AD
:104100000168086820F01400086006E00F98016854
:10411000086820F00A000860FFE70F99012081F885
:104120003500FFE70F99002081F83400FFE7FFE733
:104130000F98C06B20B1FFE70F98C16B8847FFE76E
:10414000FFE7C7E00D980F99C96D01F01F01C84046
:104150000007002840F1BC80FFE79DF83000000711
:10416000002840F1B580FFE70F9800681021C4F2E5
:104170000201884200F08180FFE70F980068282143
:10418000C4F20201884278D0FFE70F98006840210E
:10419000C4F20201884270D0FFE70F9800685821EE
:1041A000C4F20201884268D0FFE70F9800687021CE
:1041B000C4F20201884260D0FFE70F9800688821AE
:1041C000C4F20201884258D0FFE70F980068A0218E
:1041D000C4F20201884250D0FFE70F980068B8216E
:1041E000C4F20201884248D0FFE70F98006840F20D
:1041F0001041C4F2020188423FD0FFE70F980068E7
:1042000040F22841C4F20201884236D0FFE70F98FD
:10421000006840F24041C4F2020188422DD0FFE71D
:104220000F98006840F25841C4F20201884224D03D
:10423000FFE70F98006840F27041C4F20201884223
:104240001BD0FFE70F98006840F28841C4F20201DA
:10425000884212D0FFE70F98006840F2A041C4F2F4
:104260000201884209D0FFE70F98006840F2B84188
:10427000C4F20201884207D1FFE70F98016808687D
:1042800020F01C00086006E00F980168086820F024
:104290000E000860FFE70F98C06D00F01F010120BD
:1042A00000FA01F1089A51600F9948650F9981F859
:1042B0003500FFE70F99002081F83400FFE70F98E1
:1042C000C06C20B1FFE70F98C16C8847FFE700E0A2
:1042D000FFE7FFE7FFE700E0FFE7FFE710B080BD83
:1042E00010B58EB00C9001F05BFA0A900C9828B9CA
:1042F000FFE701208DF8370000F09FBC0C980168A3
:1043000001201022C4F202029142079000F0A38023
:10431000FFE70C98016801202822C4F202029142B2
:10432000079000F09880FFE70C9801680120402278
:10433000C4F202029142079000F08D80FFE70C98D2
:10434000016801205822C4F202029142079000F055
:104350008280FFE70C98016801207022C4F20202FB
:104360009142079077D0FFE70C98016801208822DE
:10437000C4F20202914207906DD0FFE70C980168E9
:104380000120A022C4F202029142079063D0FFE70D
:104390000C9801680120B822C4F2020291420790F1
:1043A00059D0FFE70C980168012040F21042C4F296
:1043B0000202914207904ED0FFE70C98016801205D
:1043C00040F22842C4F202029142079043D0FFE734
:1043D0000C980168012040F24042C4F2020291426E
:1043E000079038D0FFE70C980168012040F258424E
:1043F000C4F20202914207902DD0FFE70C980168A9
:10440000012040F27042C4F202029142079022D091
:10441000FFE70C980168012040F28842C4F20202D2
:104420009142079017D0FFE70C980168012040F2F5
:10443000A042C4F20202914207900CD0FFE70C9810
:1044400000684FF64831CBF6FD710844B0FA80F0B1
:1044500040090790FFE70798C007002800F079811E
:10446000FFE70C98406A08B1FFE7FFE70C990220CC
:1044700081F83500FFE70C99002081F83400FFE750
:104480000C9800681021C4F20201884200F081807B
:10449000FFE70C9800682821C4F20201884278D016
:1044A000FFE70C9800684021C4F20201884270D0F6
:1044B000FFE70C9800685821C4F20201884268D0D6
:1044C000FFE70C9800687021C4F20201884260D0B6
:1044D000FFE70C9800688821C4F20201884258D096
:1044E000FFE70C980068A021C4F20201884250D076
:1044F000FFE70C980068B821C4F20201884248D056
:10450000FFE70C98006840F21041C4F202018842B3
:104510003FD0FFE70C98006840F22841C4F2020146
:10452000884236D0FFE70C98006840F24041C4F260
:10453000020188422DD0FFE70C98006840F25841F4
:10454000C4F20201884224D0FFE70C98006840F2D0
:104550007041C4F2020188421BD0FFE70C9800684A
:1045600040F28841C4F20201884212D0FFE70C9861
:10457000006840F2A041C4F20201884209D0FFE77E
:104580000C98006840F2B841C4F20201884207D199
:10459000FFE70C980168086820F00100086006E059
:1045A0000C980168086820F001000860FFE7FFE749
:1045B0000C9800680068C00798B1FFE701F0F0F8B8
:1045C0000A99401A06280BD3FFE70C99202048656A
:1045D0000C99032081F8350001208DF837002CE379
:1045E000E6E70C98006800680B900B9848F23F01D2
:1045F000CFF6106108400B900C998868D1F80CC078
:104600000B694A6940EA0C00184310438A69104359
:10461000CA691043096A01430B9808430B900C9830
:10462000406A042808D1FFE70C99C86A096B014366
:104630000B9808430B90FFE741F20000C5F60040DD
:1046400000684FF6FF718843B0F1005F40D3FFE789
:104650000C984068292807D3FFE70C98416801208F
:104660002F2906902AD3FFE70C9840683F2807D3EC
:10467000FFE70C9841680120432906901ED3FFE70D
:104680000C984068472807D3FFE70C984168012041
:104690004929069012D3FFE70C98416800204F2962
:1046A000059008D3FFE70C9841680020532938BFD4
:1046B00001200590FFE705980690FFE70698C007E0
:1046C00028B1FFE70B9840F480100B90FFE7FFE75D
:1046D0000B980C99096808600C98006840690B9069
:1046E0000B9820F007000B900C98416A0B98084338
:1046F0000B900C98406A04281AD1FFE70C98816A45
:104700000B9808430B900C98C06A80B1FFE70C9897
:10471000FCF7EAFB50B1FFE70C99402048650C9983
:10472000012081F835008DF8370086E2FFE7FFE7CA
:104730000B980C99096848610C98FCF799F9099055
:104740000C98C06D00F01F013F20884009998860D7
:1047500026E10C980168012045F20842C5F60202E4
:10476000914204904ED0FFE70C980168012045F279
:104770001C42C5F602029142049043D0FFE70C9818
:104780000168012045F23042C5F6020291420490D0
:1047900038D0FFE70C980168012045F24442C5F685
:1047A0000202914204902DD0FFE70C98016801208D
:1047B00045F25842C5F602029142049022D0FFE72A
:1047C0000C980168012045F26C42C5F60202914244
:1047D000049017D0FFE70C980168012045F2804251
:1047E000C5F60202914204900CD0FFE70C980068D5
:1047F0004AF66C31CAF2FD710844B0FA80F0400903
:104800000490FFE70498C007002800F0BD80FFE790
:104810000C980168012045F20842C5F60202914257
:1048200003904ED0FFE70C980168012045F21C422E
:10483000C5F602029142039043D0FFE70C9801684D
:10484000012045F23042C5F602029142039038D071
:10485000FFE70C980168012045F24442C5F60202C8
:10486000914203902DD0FFE70C980168012045F29A
:104870005842C5F602029142039022D0FFE70C98FD
:104880000168012045F26C42C5F602029142039094
:1048900017D0FFE70C980168012045F28042C5F669
:1048A0000202914203900CD0FFE70C9800684AF690
:1048B0006C31CAF2FD710844B0FA80F040090390EF
:1048C000FFE70398C00708B1FFE7FFE70C99022054
:1048D00081F83500FFE70C99002081F83400FFE7EC
:1048E0000C98006800680B900B986FF310100B90F9
:1048F0000C988068402803D1FFE71020029008E060
:104900000C9880688038B0FA80F0400980030290EB
:10491000FFE702980C99CA680B69D1F814C0D1F866
:1049200018E0CC694EEA040E4CEA0E0C43EA0C0384
:104930001A4340EAD200096A40EA11110B98084371
:104940000B900B980C99096808600C9908684AF656
:10495000F832CAF2FD7210444CF6CD42CCF6CC428D
:10496000A0FB02026FF0030000EA9200C8650C98F9
:10497000FCF77EF808900C98C06D00F01F01012034
:104980008840089948600AE00C99402048650C99D5
:10499000032081F8350001208DF837004DE1FFE755
:1049A0000C98016801201022C4F202029142019089
:1049B00000F00381FFE70C98016801202822C4F26F
:1049C00002029142019000F0F880FFE70C98016824
:1049D00001204022C4F202029142019000F0ED80D9
:1049E000FFE70C98016801205822C4F202029142AC
:1049F000019000F0E280FFE70C980168012070222E
:104A0000C4F202029142019000F0D780FFE70C98B7
:104A1000016801208822C4F202029142019000F054
:104A2000CC80FFE70C9801680120A022C4F20202AA
:104A30009142019000F0C180FFE70C9801680120CD
:104A4000B822C4F202029142019000F0B680FFE762
:104A50000C980168012040F21042C4F20202914217
:104A6000019000F0AA80FFE70C980168012040F255
:104A70002842C4F202029142019000F09E80FFE7BA
:104A80000C980168012040F24042C4F202029142B7
:104A9000019000F09280FFE70C980168012040F23D
:104AA0005842C4F202029142019000F08680FFE772
:104AB0000C980168012040F27042C4F20202914257
:104AC00001907AD0FFE70C980168012040F28842FB
:104AD000C4F20202914201906FD0FFE70C98016886
:104AE000012040F2A042C4F202029142019064D03F
:104AF000FFE70C980168012040F2B842C4F20202BC
:104B00009142019059D0FFE70C980168012045F2CD
:104B10000842C5F60202914201904ED0FFE70C9880
:104B20000168012045F21C42C5F602029142019043
:104B300043D0FFE70C980168012045F23042C5F6EA
:104B400002029142019038D0FFE70C9801680120E1
:104B500045F24442C5F60202914201902DD0FFE792
:104B60000C980168012045F25842C5F602029142B4
:104B7000019022D0FFE70C980168012045F26C42B9
:104B8000C5F602029142019017D0FFE70C98016828
:104B9000012045F28042C5F60202914201900CD0FC
:104BA000FFE70C9800684AF66C31CAF2FD710844C0
:104BB000B0FA80F040090190FFE70198C00790B378
:104BC000FFE70C98FCF73CF80C988068802804D12B
:104BD000FFE70C9900204860FFE70C990879096EFF
:104BE00008600C98416E806E48600C98406888B1EF
:104BF000FFE70C98406808280CD8FFE70C98FCF7F2
:104C0000DBF80C98C16E002008600C98016F406FB3
:104C1000486007E00C990020C8660C9908670C9959
:104C20004867FFE7FFE70C99002048650C9A0121CF
:104C300082F835108DF83700FFE79DF837000EB089
:104C400010BD00000000000080B588B006900591FE
:104C50000492039300208DF80B00069820B9FFE71B
:104C600001208DF81F006CE3FFE7069890F83400F0
:104C7000012804D1FFE702208DF81F0061E30699A7
:104C8000012081F83400FFE7FFE7069890F835002F
:104C9000012840F04383FFE70699022081F83500A0
:104CA000069900204865069800681021C4F20201A8
:104CB000884200F08180FFE7069800682821C4F24E
:104CC0000201884278D0FFE7069800684021C4F2CC
:104CD0000201884270D0FFE7069800685821C4F2AC
:104CE0000201884268D0FFE7069800687021C4F28C
:104CF0000201884260D0FFE7069800688821C4F26C
:104D00000201884258D0FFE706980068A021C4F24B
:104D10000201884250D0FFE706980068B821C4F22B
:104D20000201884248D0FFE70698006840F210412F
:104D3000C4F2020188423FD0FFE70698006840F2C3
:104D40002841C4F20201884236D0FFE70698006885
:104D500040F24041C4F2020188422DD0FFE706989C
:104D6000006840F25841C4F20201884224D0FFE7B3
:104D70000698006840F27041C4F2020188421BD0DC
:104D8000FFE70698006840F28841C4F202018842B9
:104D900012D0FFE70698006840F2A041C4F2020179
:104DA000884209D0FFE70698006840F2B841C4F293
:104DB0000201884207D1FFE706980168086820F0E1
:104DC0000100086006E006980168086820F001000C
:104DD0000860FFE706980599049A039BFCF7FCF826
:104DE0000698016801201022C4F20202914201904B
:104DF00000F0A380FFE70698016801202822C4F292
:104E000002029142019000F09880FFE70698016845
:104E100001204022C4F202029142019000F08D80F4
:104E2000FFE70698016801205822C4F2020291426D
:104E3000019000F08280FFE706980168012070224F
:104E4000C4F202029142019077D0FFE70698016810
:104E500001208822C4F20202914201906DD0FFE746
:104E6000069801680120A022C4F20202914201903A
:104E700063D0FFE7069801680120B822C4F202025D
:104E80009142019059D0FFE706980168012040F255
:104E90001042C4F20202914201904ED0FFE7069800
:104EA0000168012040F22842C4F2020291420190BE
:104EB00043D0FFE706980168012040F24042C4F267
:104EC00002029142019038D0FFE706980168012064
:104ED00040F25842C4F20202914201902DD0FFE705
:104EE00006980168012040F27042C4F20202914229
:104EF000019022D0FFE706980168012040F2884225
:104F0000C4F202029142019017D0FFE706980168AF
:104F1000012040F2A042C4F20202914201900CD062
:104F2000FFE7069800684FF64831CBF6FD7108445C
:104F3000B0FA80F040090190FFE70198C007A8B1DE
:104F4000FFE70698006800680B2161F344000699AA
:104F5000096808600698006C38B1FFE70698016898
:104F6000086840F008000860FFE714E00698006851
:104F70000068052161F343000699096808600698F6
:104F8000006C38B1FFE706980168086840F004003B
:104F90000860FFE7FFE70698016801201022C4F2CD
:104FA00002029142009000F00381FFE70698016839
:104FB00001202822C4F202029142009000F0F88001
:104FC000FFE70698016801204022C4F202029142E4
:104FD000009000F0ED80FFE706980168012058225C
:104FE000C4F202029142009000F0E280FFE70698CE
:104FF000016801207022C4F202029142009000F088
:10500000D780FFE70698016801208822C4F20202D7
:105010009142009000F0CC80FFE7069801680120E3
:10502000A022C4F202029142009000F0C180FFE78A
:10503000069801680120B822C4F202029142009051
:1050400000F0B680FFE706980168012040F21042A8
:10505000C4F202029142009000F0AA80FFE7069895
:105060000168012040F22842C4F2020291420090FD
:1050700000F09E80FFE706980168012040F2404260
:10508000C4F202029142009000F09280FFE706987D
:105090000168012040F25842C4F20202914200909D
:1050A00000F08680FFE706980168012040F2704218
:1050B000C4F20202914200907AD0FFE7069801689C
:1050C000012040F28842C4F20202914200906FD067
:1050D000FFE706980168012040F2A042C4F20202F4
:1050E0009142009064D0FFE706980168012040F2E9
:1050F000B842C4F202029142009059D0FFE70698EC
:105100000168012045F20842C5F602029142009072
:105110004ED0FFE706980168012045F21C42C5F613
:1051200002029142009043D0FFE7069801680120F7
:1051300045F23042C5F602029142009038D0FFE7B6
:1051400006980168012045F24442C5F602029142E8
:1051500000902DD0FFE706980168012045F25842E3
:10516000C5F602029142009022D0FFE7069801683E
:10517000012045F26C42C5F602029142009017D020
:10518000FFE706980168012045F28042C5F6020259
:10519000914200900CD0FFE7069800684AF66C3107
:1051A000CAF2FD710844B0FA80F040090090FFE7B0
:1051B0000098C007D0B1FFE70698006E0068C003F2
:1051C000002807D5FFE70698016E086840F4807054
:1051D0000860FFE70698C06E38B1FFE70698C16E19
:1051E000086840F480700860FFE7FFE706980068F1
:1051F0001021C4F20201884200F08180FFE7069886
:1052000000682821C4F20201884278D0FFE706989E
:1052100000684021C4F20201884270D0FFE706987E
:1052200000685821C4F20201884268D0FFE706985E
:1052300000687021C4F20201884260D0FFE706983E
:1052400000688821C4F20201884258D0FFE706981E
:105250000068A021C4F20201884250D0FFE70698FE
:105260000068B821C4F20201884248D0FFE70698DE
:10527000006840F21041C4F2020188423FD0FFE7CB
:105280000698006840F22841C4F20201884236D0F4
:10529000FFE70698006840F24041C4F202018842EC
:1052A0002DD0FFE70698006840F25841C4F2020191
:1052B000884224D0FFE70698006840F27041C4F2AB
:1052C000020188421BD0FFE70698006840F288413F
:1052D000C4F20201884212D0FFE70698006840F24B
:1052E000A041C4F20201884209D0FFE70698006895
:1052F00040F2B841C4F20201884207D1FFE70698A4
:105300000168086840F00100086006E0069801683E
:10531000086840F001000860FFE70DE006994FF4CF
:1053200000604865FFE70699002081F83400FFE738
:1053300001208DF80B00FFE79DF80B008DF81F0092
:10534000FFE79DF81F0008B080BD000000000000CE
:1053500080B584B0039000F023FA02900398019086
:105360000198013048B1FFE740F20800C2F2004066
:105370000178019808440190FFE7FFE700F010FA78
:105380000299401A0199884201D2FFE7F6E704B07A
:1053900080BD00000000000090B00F900E91002032
:1053A0000D908020C5F600000A90FFE70E98006877
:1053B0000D99C840002800F0CF81FFE70E980068E3
:1053C0000D9A0121914008400C900C98002800F0A3
:1053D000BF81FFE70E98406800F00300012807D066
:1053E000FFE70E98406800F0030002282FD1FFE786
:1053F0000F9880680B900D984100032000FA01F18E
:105400000B9888430B900E98C0680D99490000FADC
:1054100001F10B9808430B900B980F9988600F9837
:1054200040680B900D99012000FA01F10B98884318
:105430000B900E984068C0F300100D9900FA01F12E
:105440000B9808430B900B980F994860FFE70E9854
:10545000406800F00300032818D0FFE70F98C068E9
:105460000B900D984100032000FA01F10B9888433E
:105470000B900E9880680D99490000FA01F10B9885
:1054800008430B900B980F99C860FFE70E9840688F
:1054900000F00300022826D1FFE70F980D996FF066
:1054A000030202EA51010844006A0B900D9800F0D3
:1054B000070081000F2000FA01F10B9888430B9040
:1054C0000E9800690D9901F00701890000FA01F1B9
:1054D0000B9808430B900B980F990D9B02EA53020F
:1054E00011440862FFE70F9800680B900D98410087
:1054F000032000FA01F10B9888430B900E98406846
:1055000000F003000D99490000FA01F10B980843DF
:105510000B900B980F9908600E98807980070028EF
:1055200000F01581FFE7FFE744F2F440C5F6020002
:10553000016841F002010160006800F0020009907A
:105540000998FFE70D9820F0030040F20841C5F6E6
:10555000000140580B900D9800F0030081000F20CF
:1055600000FA01F10B9888430B900F980021C5F6C3
:105570000201884203D1FFE7002008907AE00F98EB
:1055800040F20041C5F60201884203D1FFE7012045
:1055900007906CE00F9840F60001C5F602018842C2
:1055A00003D1FFE7022006905EE00F9840F600412D
:1055B000C5F60201884203D1FFE70320059050E0C1
:1055C0000F9841F20001C5F60201884203D1FFE7BE
:1055D0000420049042E00F9841F20041C5F6020118
:1055E000884203D1FFE70520039034E00F9841F68D
:1055F0000001C5F60201884203D1FFE706200290B0
:1056000026E00F9841F60041C5F60201884203D119
:10561000FFE70720019018E00F9842F20001C5F65D
:105620000201884203D1FFE7082000900AE00F99A9
:1056300042F20042C5F602020A20914208BF092048
:105640000090FFE700980190FFE701980290FFE7C4
:1056500002980390FFE703980490FFE704980590F1
:10566000FFE705980690FFE706980790FFE7079881
:105670000890FFE708980D9901F00301890000FAEE
:1056800001F10B9808430B900B980D9921F0030141
:1056900040F20842C5F6000288504FF0B040006862
:1056A0000B900C990B9888430B900E988079C0064C
:1056B000002805D5FFE70C990B9808430B90FFE7EE
:1056C0000B984FF0B04108600420C5F60000006858
:1056D0000B900C990B9888430B900E98807980065C
:1056E000002805D5FFE70C990B9808430B90FFE7BE
:1056F0000B980421C5F6000108600A9840680B90D9
:105700000C990B9888430B900E988079800700289D
:1057100005D5FFE70C990B9808430B90FFE70B9812
:105720000A9948600A9800680B900C990B98884376
:105730000B900E988079C00728B1FFE70C990B9861
:1057400008430B90FFE70B980A990860FFE7FFE713
:105750000D9801300D9029E610B070470000000050
:1057600082B00190ADF802108DF801209DF8010083
:1057700028B1FFE7BDF802000199886105E0BDF896
:105780000200000401998861FFE702B07047000041
:1057900041F20000C5F600400068000C70470000B0
:1057A00040F65810C2F20040006870470000000048
:1057B00083B001900091019890F8410020283BD1DE
:1057C000FFE7FFE7019890F84000012804D1FFE7C8
:1057D00002208DF80B0033E00199012081F8400090
:1057E000FFE7FFE70199242081F841000198016853
:1057F000086820F00100086001980168086820F43A
:1058000080500860009A0198016808681043086099
:1058100001980168086840F00100086001992020A3
:1058200081F84100FFE70199002081F84000FFE77F
:1058300000208DF80B0003E002208DF80B00FFE73D
:105840009DF80B0003B0704784B00290019102985C
:1058500090F84100202840D1FFE7FFE7029890F838
:105860004000012804D1FFE702208DF80F0038E046
:105870000299012081F84000FFE7FFE70299242008
:1058800081F8410002980168086820F00100086072
:105890000298006800680090009820F47060009002
:1058A0000199009840EA0120009000980299096847
:1058B000086002980168086840F0010008600299D9
:1058C000202081F84100FFE70299002081F8400084
:1058D000FFE700208DF80F0003E002208DF80F0095
:1058E000FFE79DF80F0004B07047000000000000C3
:1058F00080B582B00090009820B9FFE701208DF8B4
:10590000070073E0009890F8410040B9FFE7009964
:10591000002081F84000009800F06EF8FFE7009941
:10592000242081F8410000980168086820F00100F7
:10593000086000980168406820F070600861009875
:105940000168886820F4004088600098C0680128D9
:1059500007D1FFE700980168806840F40040886044
:1059600006E000980168806840F404408860FFE722
:105970000098C068022806D1FFE7009801684FF43C
:1059800000604860FFE700980168486848F200023C
:10599000C0F200221043486000980168C86820F4F3
:1059A0000040C860009A11681069536992691843F1
:1059B00040EA0220C860009A1168D069126A104358
:1059C000086000980168086840F0010008600099CC
:1059D00000204864009A202182F841100099086351
:1059E000009981F842008DF80700FFE79DF8070055
:1059F00002B080BD0000000080B5B8B03790002034
:105A00003690359034903390329002A8C021FAF746
:105A100097FC3798006845F20041C4F200018842C3
:105A20003CD1FFE70020039008210291239002A8B7
:105A300001F01EFC18B1FFE7FBF75EFDFFE7FFE793
:105A400044F2E040C5F60200016841F00201016045
:105A5000006800F0020001900198FFE7C02032903A
:105A6000122033900020349035900420369040F27C
:105A70000040C5F6020032A9FFF78EFCFFE744F2B2
:105A8000E840C5F60200016841F4001101600068B9
:105A900000F4001000900098FFE7FFE738B080BDE9
:105AA00040F20800C2F20040027840F65811C2F2FB
:105AB00000410868104408607047000000000000C2
:105AC00080B582B0032000F033F902F0C1FE44F249
:105AD0001842C5F602021168C1F303234FF2AC214C
